S013000055415254204472697665722E7372656349
S11300000C942A000C9434000C9434000C943400A6
S11300100C9434000C9434000C9434000C9434008C
S11300200C9434000C9434000C9434000C9434007C
S11300300C9434000C9434000C9434000C9434006C
S11300400C9434000C9434000C9434000C9434005C
S11300500C94340011241FBECFE5D8E0DEBFCDBF21
S11300600E9436000C9477000C94000080E895E21E
S11300700E943B00FFCF82959295907F9827807FC6
S113008098279C0140E050E060E472E48FE090E047
S11300900E9455002150310929B922273F7030BDF3
S11300A088E18AB986E880BD0895A1E21A2EAA1BC8
S11300B0BB1BFD010DC0AA1FBB1FEE1FFF1FA21714
S11300C0B307E407F50720F0A21BB30BE40BF50B11
S11300D0661F771F881F991F1A9469F7609570959A
S11300E0809590959B01AC01BD01CF010895F894D2
S10500F0FFCF3C
S9030000FC
