:100000000C942A000C9434000C9434000C943400AA
:100010000C9434000C9434000C9434000C94340090
:100020000C9434000C9434000C9434000C94340080
:100030000C9434000C9434000C9434000C94340070
:100040000C9434000C9434000C9434000C9436005E
:100050000C94340011241FBECFE5D4E0DEBFCDBF29
:100060000E9449000C944C000C9400001F920F92C7
:100070000FB60F9211240F900FBE0F901F9018957E
:1000800012BE8AEF8CBF87B3886087BB89E983BFC4
:0C00900008950E944000FFCFF894FFCFBD
:00000001FF
