:100000000C942A000C943C000C943C000C943C0092
:100010000C943C000C943C000C943C000C943C0070
:100020000C943C000C943C000C943C000C943C0060
:100030000C943C000C943C000C943C000C943C0050
:100040000C943C000C943C000C943C000C943E003E
:100050000C943C0011241FBECFE5D4E0DEBFCDBF21
:1000600020E0A0E6B0E001C01D92A136B207E1F7A2
:100070000E9467000C946F000C9400001F920F9276
:100080000FB60F9211248F939F93809160008F5F22
:1000900080936000823031F495B381E0892785BB7D
:1000A000109260009F918F910F900FBE0F901F9044
:1000B00018959FB79F779FBF12BE99B7926099BF5F
:1000C0009DE893BF8CBF8FB780688FBF089584B3BE
:1000D000816084BB15BA8AEF0E945900FFCFF89463
:0200E000FFCF50
:00000001FF
