S0120000457865726369736520322E7372656388
S11300000C942A000C943C000C943E000C943C008C
S11300100C943C000C943C000C943C000C943C006C
S11300200C943C000C943C000C943C000C943C005C
S11300300C943C000C943C000C943C000C943C004C
S11300400C943C000C943C000C943C000C943C003C
S11300500C943C0011241FBECFE5D4E0DEBFCDBF1D
S113006020E0A0E6B0E001C01D92A136B207E1F79E
S11300700E9460000C949E000C9400001F920F924A
S11300800FB60F9211248F9381E0809360008F91BB
S11300900F900FBE0F901F9018958FB78F778FBF5B
S11300A081B3887081BB82B3886082BB8BB7806860
S11300B08BBF85B7886085BF8FB780688FBF089571
S11300C08FEF84BB81E085BB0E944D00809160006E
S11300D0811112C02FE936E841E021503040404000
S11300E0E1F700C0000085B3880F85BB85B381119B
S11300F0EDCF81E085BBEACF813041F717C02FEF08
S113010025BB2FE936E841E0215030404040E1F77B
S113011000C0000015BA2FE936E841E02150304014
S11301204040E1F700C00000019602C080E090E08A
S11301308530910524F310926000C8CFF894FFCF66
S9030000FC
