S0120000457865726369736520332E7372656387
S11300000C942A000C9434000C9434000C943400A6
S11300100C9434000C9434000C9434000C9434008C
S11300200C9434000C9434000C9434000C9434007C
S11300300C9434000C9434000C9434000C9434006C
S11300400C9434000C9434000C9434000C9434005C
S11300500C94340011241FBECFE5D4E0DEBFCDBF25
S11300600E9436000C9454000C94000087B38E7FD9
S113007087BB87B317BA84B3816084BB84B38260BF
S113008084BBB09B05C0B19B03C083E085BBF9CFA3
S1130090B09B03C081E085BBF4CFB19B03C082E079
S10F00A085BBEFCF15BAEDCFF894FFCF6D
S9030000FC
