S00C00004750494F2E73726563E9
S11300000C942A000C9434000C9434000C943400A6
S11300100C9434000C9434000C9434000C9434008C
S11300200C9434000C9434000C9434000C9434007C
S11300300C9434000C9434000C9434000C9434006C
S11300400C9434000C9434000C9434000C9434005C
S11300500C94340011241FBECFE5D4E0DEBFCDBF25
S11300600E940B010C9464010C940000813019F17E
S113007030F08230E1F1833009F454C00895411125
S11300800CC02AB381E090E002C0880F991F6A95E2
S1130090E2F7809582238ABB0895413009F05CC061
S11300A02AB381E090E002C0880F991F6A95E2F7B5
S11300B0822B8ABB089541110CC027B381E090E0E4
S11300C002C0880F991F6A95E2F78095822387BB47
S11300D00895413009F040C027B381E090E002C0A8
S11300E0880F991F6A95E2F7822B87BB0895411107
S11300F00CC024B381E090E002C0880F991F6A9578
S1130100E2F78095822384BB0895413029F524B316
S113011081E090E002C0880F991F6A95E2F7822B74
S113012084BB089541110CC021B381E090E002C06A
S1130130880F991F6A95E2F78095822381BB089501
S1130140413051F421B381E090E002C0880F991F3F
S11301506A95E2F7822B81BB0895813089F028F0FB
S11301608230C9F0833011F12CC089B390E002C011
S1130170959587956A95E2F780FF25C081E00895FB
S113018086B390E002C0959587956A95E2F780FF63
S11301901CC081E0089583B390E002C095958795D3
S11301A06A95E2F780FF13C081E0089580B390E080
S11301B002C0959587956A95E2F780FF0AC081E0B1
S11301C0089580E0089580E0089580E0089580E037
S11301D0089580E00895813041F028F0823039F0AC
S11301E0833039F008956ABB089567BB089564BBF2
S11301F0089561BB0895813041F028F0823039F0D0
S1130200833039F008956BBB089568BB089565BBCE
S1130210089562BB089540E063E080E00E943600E8
S113022040E064E080E00E9436006FEF83E00E94CB
S1130230EB0060E083E00E94FB0063E080E00E944A
S1130240AD008130D9F465E583E00E94FB002FE91D
S113025086E891E0215080409040E1F700C0000022
S113026060E083E00E94FB002FE986E891E02150E2
S113027080409040E1F700C00000DFCF64E080E000
S11302800E94AD008130D9F46AEA83E00E94FB0049
S11302902FE986E891E0215080409040E1F700C0CA
S11302A0000060E083E00E94FB002FE986E891E013
S11302B0215080409040E1F700C00000BECF60E0D4
S10F02C083E00E94FB00B9CFF894FFCF4C
S9030000FC
