S0120000457865726369736520312E7372656389
S11300000C942A000C9434000C9434000C943400A6
S11300100C9434000C9434000C9434000C9434008C
S11300200C9434000C9434000C9434000C9434007C
S11300300C9434000C9434000C9434000C9434006C
S11300400C9434000C9434000C9434000C9434005C
S11300500C94340011241FBECFE5D4E0DEBFCDBF25
S11300600E9436000C9443000C9400008AB3877FEE
S11300708ABB84B3806284BBCB9B03C080E285BB14
S10D0080FBCF15BAF9CFF894FFCFB7
S9030000FC
