S0120000457865726369736520322E7372656388
S11300000C942A000C9447000C9447000C9447006D
S11300100C9447000C9449000C9447000C9447003E
S11300200C9447000C9447000C9447000C94470030
S11300300C9447000C9447000C9447000C94470020
S11300400C9447000C9447000C9447000C94470010
S11300500C94470011241FBECFE5D4E0DEBFCDBF12
S113006010E0A0E6B0E0E2E6F9E002C005900D92EF
S1130070AC36B107D9F720E0ACE6B0E001C01D9280
S1130080A337B207E1F70E9475010C94AF040C94F6
S113009000001F920F920FB60F9211242F933F93DB
S11300A04F935F936F937F938F939F93AF93BF937C
S11300B0EF93FF93E0916C00F0916D00309709F09D
S11300C00995FF91EF91BF91AF919F918F917F918E
S11300D06F915F914F913F912F910F900FBE0F90B1
S11300E01F901895FC0191B39F7B91BB9FB59C60B9
S11300F09FBD9EB52081987F922B9EBD2EB5918188
S113010030E4939FC0011124922F9F7B892B8EBDD5
S113011089B7806289BF1DBC1CBC17BC16BC08957E
S113012090936D0080936C0008952EB530E4839F06
S1130130C00111242F7B822B8EBD08951DBC1CBCD5
S1130140089586B597B508951FBC1EBC1DBC1CBC84
S113015017BC16BC89B78F7D89BF089592B39F7E63
S113016092BB92B39F7D92BBE9EFF0E03197F1F738
S113017000C0000092B3906892BBE9EFF0E03197C1
S1130180F1F700C0000085BB89EF90E00197F1F71B
S113019000C0000082B38F7782BBE9EFF0E03197B3
S11301A0F1F700C00000089581B3806B81BB8FEF2D
S11301B084BB88E30E94AE008FE00E94AE0081E021
S11301C00E94AE00089592B3906192BB92B39F7D5A
S11301D092BBE9EFF0E03197F1F700C0000092B371
S11301E0906892BBE9EFF0E03197F1F700C00000AE
S11301F085BB89EF90E00197F1F700C0000082B35E
S11302008F7782BBE9EFF0E03197F1F700C000008F
S11302100895CF93DF93EC0103C00E94E30021967D
S113022088818111FACFDF91CF9108950F931F93A5
S1130230CF93DF9300D000D0CDB7DEB719821A82F6
S11302401B821C829F938F937F936F9380E690E031
S11302509F938F938E010F5F1F4F1F930F930E94E5
S1130260C501C8010E9409010FB6F894DEBF0FBE94
S1130270CDBF0F900F900F900F90DF91CF911F91F2
S11302800F910895809170008F5F8093700080912A
S11302907000813031F40E949E0080E00E9495003D
S11302A0089580917000823051F40E94A1009093CF
S11302B072008093710081E00E94950008958091FE
S11302C07000833021F480E00E94950008958091AD
S11302D07000843049F40E94A10090936F008093D1
S11302E06E0081E00E9495000895CF93DF9300D0C3
S11302F0CDB7DEB78FB780688FBF0E94D40081E08E
S113030089838A8382E491E00E949000CE01019661
S11303100E94720083E690E00E94090180917000BF
S11303208430E1F7109270000E94A40020916E00C6
S113033030916F008091710090917200281B390BED
S1130340369527953695279536952795A5ECB0E2F1
S11303500E94B601929582958F7089279F70892794
S1130360BC0180E090E00E941601D8CFA29FB001AA
S1130370B39FC001A39F700D811D1124911DB29FD5
S1130380700D811D1124911D0895AEE0B0E0EBECD9
S1130390F1E00C9486040D891E8986E08C831A830F
S11303A009838FEF9FE79E838D83AE01475E5F4F86
S11303B06F89788DCE0101960E94E701EF81F8855F
S11303C0E00FF11F10822E96E4E00C94A204ABE03F
S11303D0B0E0EDEEF1E00C9478046C017B018A014D
S11303E0FC0117821682838181FFCCC1CE01019664
S11303F03C01F6019381F70193FD859193FF81916F
S11304007F01882309F4BAC1853239F493FD8591BB
S113041093FF81917F01853229F4B60190E00E9417
S1130420DE03E7CF912C212C312CFFE1F315D8F01A
S11304308B3279F038F4803279F08332A1F4232DB1
S113044020611DC08D3261F0803369F4232D216059
S113045016C0832D8260382EE32DE4603E2E2AC020
S1130460F32DF8601DC037FC2DC020ED280F2A3075
S113047040F08E32B9F436FC81C1232D2064322E33
S113048019C036FE06C08AE0989E200D1124922ED3
S113049011C0EAE02E9E200D1124222EF32DF062CD
S11304A03F2E08C08C3621F4832D8068382E02C07C
S11304B0883641F4F70193FD859193FF81917F0183
S11304C08111B3CF982F9F7D9554933028F40C5FFE
S11304D01F4F9FE399830DC0833631F0833771F04A
S11304E0833509F059C021C0F801808189830E5FEA
S11304F01F4F88248394912C530113C02801F2E0E8
S11305004F0E511CF801A080B18036FE03C0692D46
S113051070E002C06FEF7FEFC5010E94D3034C016E
S11305208201F32DFF773F2E16C0280122E0420EF0
S1130530511CF801A080B18036FE03C0692D70E023
S113054002C06FEF7FEFC5010E94C8034C01F32D79
S1130550F0683F2E820133FC1BC0822D90E0881688
S11305609906B0F4B60180E290E00E94DE032A947A
S1130570F4CFF50137FC859137FE81915F01B60117
S113058090E00E94DE0321102A9421E0821A91084F
S11305908114910471F7E8C0843611F0893641F56D
S11305A0F80137FE07C060817181828193810C5FFD
S11305B01F4F08C060817181072E000C880B990BB6
S11305C00E5F1F4FF32DFF763F2E97FF09C09095C6
S11305D08095709561957F4F8F4F9F4FF0683F2EA8
S11305E02AE030E0A3010E941A04882E861845C030
S11305F0853731F4232D2F7EB22E2AE030E025C03A
S1130600932D997FB92E8F36C1F018F4883579F07F
S1130610B5C0803719F0883721F0B0C0E92FE06108
S1130620BE2EB4FE0DC0FB2DF460BF2E09C034FEF7
S11306300AC0292F2660B22E06C028E030E005C08B
S113064020E130E002C020E132E0F801B7FE07C04B
S113065060817181828193810C5F1F4F06C060812C
S1130660718180E090E00E5F1F4FA3010E941A0485
S1130670882E8618FB2DFF773F2E36FE0DC0232DC6
S11306802E7FA22E891458F434FE0BC032FC09C00C
S1130690832D8E7EA82E05C0B82CA32C03C0B82CA5
S11306A001C0B92CA4FE0FC0FE01E80DF11D80812C
S11306B0803321F49A2D997EA92E09C0A2FE06C08A
S11306C0B394B39404C08A2D867809F0B394A3FC40
S11306D011C0A0FE06C0B21488F4280C922C9B18FA
S11306E00EC0B21460F4B60180E290E00E94DE0312
S11306F0B394F7CFB21418F42B1802C0982C212C01
S1130700A4FE10C0B60180E390E00E94DE03A2FEC6
S113071017C0A1FC03C088E790E002C088E590E020
S1130720B6010CC08A2D867859F0A1FE02C08BE276
S113073001C080E2A7FC8DE2B60190E00E94DE03D6
S1130740891438F4B60180E390E00E94DE039A94A1
S1130750F7CF8A94F301E80DF11D8081B60190E092
S11307600E94DE038110F5CF222009F442CEB601A7
S113077080E290E00E94DE032A94F6CFF60186819F
S1130780978102C08FEF9FEF2B96E2E10C949404C3
S1130790FC010590615070400110D8F78095909548
S11307A08E0F9F1F0895FC0161507040019001104D
S11307B0D8F7809590958E0F9F1F08950F931F93E0
S11307C0CF93DF93FB01238121FD03C08FEF9FEFC4
S11307D02CC022FF16C046815781248135814217DF
S11307E0530744F4A081B1819D012F5F3F4F3183B2
S11307F020838C93268137812F5F3F4F3783268355
S113080014C08B01EC01FB010084F185E02D0995F6
S1130810892BE1F6D80116968D919C911797019634
S113082017969C938E931697CE01DF91CF911F91CB
S11308300F910895FA01AA27283051F1203181F14E
S1130840E8946F936E7F6E5F7F4F8F4F9F4FAF4FD4
S1130850B1E03ED0B4E03CD0670F781F891F9A1FE7
S1130860A11D680F791F8A1F911DA11D6A0F711D9B
S1130870811D911DA11D20D009F468943F912AE0A7
S1130880269F11243019305D3193DEF6CF0108958F
S1130890462F4770405D4193B3E00FD0C9F7F6CFC0
S11308A0462F4F70405D4A3318F0495D31FD405288
S11308B0419302D0A9F7EACFB4E0A695979587951E
S11308C077956795BA95C9F70097610571050895FD
S11308D09B01AC010A2E06945795479537952795A9
S11308E0BA95C9F7620F731F841F951FA01D089541
S11308F02F923F924F925F926F927F928F929F922C
S1130900AF92BF92CF92DF92EF92FF920F931F9319
S1130910CF93DF93CDB7DEB7CA1BDB0B0FB6F894CA
S1130920DEBF0FBECDBF09942A88398848885F840A
S11309306E847D848C849B84AA84B984C884DF807B
S1130940EE80FD800C811B81AA81B981CE0FD11D5F
S11309500FB6F894DEBF0FBECDBFED010895F89435
S1050960FFCFC3
S10F0962256400506572696F64203A003F
S9030000FC
