S016000046616E20436F6E74726F6C6C65722E73726563B5
S11300000C942A000C943F000C943F000C943F0085
S11300100C943F000C943F000C943F000C943F0060
S11300200C943F000C943F000C943F000C943F0050
S11300300C943F000C943F000C943F000C943F0040
S11300400C943F000C943F000C943F000C943F0030
S11300500C943F0011241FBECFE5D4E0DEBFCDBF1A
S113006010E0A0E6B0E0E0E9FFE002C005900D92E8
S1130070AC38B107D9F70E9404020C94C6070C945B
S11300800000FC0196B1906896B927B19081907CEC
S1130090922B97B996B181818770892B86B908957F
S11300A097B18F71982B97B986B1806486B9349BC8
S11300B0FECF86B1806186B984B195B1089581304F
S11300C019F130F08230E1F1833009F454C008951D
S11300D041110CC02AB381E090E002C0880F991F3F
S11300E06A95E2F7809582238ABB0895413009F02E
S11300F05CC02AB381E090E002C0880F991F6A9522
S1130100E2F7822B8ABB089541110CC027B381E02A
S113011090E002C0880F991F6A95E2F780958223C8
S113012087BB0895413009F040C027B381E090E0D7
S113013002C0880F991F6A95E2F7822B87BB089546
S113014041110CC024B381E090E002C0880F991FD4
S11301506A95E2F78095822384BB0895413029F59E
S113016024B381E090E002C0880F991F6A95E2F7FA
S1130170822B84BB089541110CC021B381E090E02F
S113018002C0880F991F6A95E2F78095822381BB8C
S11301900895413051F421B381E090E002C0880F0A
S11301A0991F6A95E2F7822B81BB0895813001F192
S11301B030F08230B1F1833009F44CC008954130FD
S11301C059F42BB381E090E002C0880F991F6A951F
S11301D0E2F7822B8BBB08952BB381E090E002C041
S11301E0880F991F6A95E2F7809582238BBB089547
S11301F0413059F428B381E090E002C0880F991F80
S11302006A95E2F7822B88BB089528B381E090E0D9
S113021002C0880F991F6A95E2F78095822388BBF4
S11302200895413059F425B381E090E002C0880F6D
S1130230991F6A95E2F7822B85BB089525B381E067
S113024090E002C0880F991F6A95E2F78095822397
S113025085BB0895413059F425B381E090E002C094
S1130260880F991F6A95E2F7822B85BB089525B301
S113027081E090E002C0880F991F6A95E2F78095AB
S1130280822385BB089592B39E7F92BB92B39D7FD8
S113029092BBE9EFF0E03197F1F700C0000092B3B0
S11302A0946092BBE9EFF0E03197F1F700C00000F1
S11302B085BB89EF90E00197F1F700C0000082B39D
S11302C08B7F82BBE9EFF0E03197F1F700C00000CB
S11302D0089581B3876081BB8FEF84BB88E30E945C
S11302E043018FE00E94430181E00E94430108958D
S11302F092B3916092BB92B39D7F92BBE9EFF0E021
S11303003197F1F700C0000092B3946092BBE9EF1B
S1130310F0E03197F1F700C0000085BB89EF90E071
S11303200197F1F700C0000082B38B7F82BBE9EF35
S1130330F0E03197F1F700C000000895CF93DF9308
S1130340EC0103C00E947801219688818111FACFC3
S1130350DF91CF910895813039F058F0823031F037
S1130360833031F060E005C0605C03C0605F01C0B1
S1130370605B862F80680E94430108950F931F934A
S1130380CF93DF9300D000D0CDB7DEB719821A82A5
S11303901B821C829F938F937F936F9380E690E0E0
S11303A09F938F938E010F5F1F4F1F930F930E9494
S11303B0DC04C8010E949E010FB6F894DEBF0FBE94
S11303C0CDBF0F900F900F900F90DF91CF911F91A1
S11303D00F91089582E00E9450009C01A6E9B0E0CC
S11303E00E94CD040E94D2032AE037ED43E250E498
S11303F00E94600420E030ED4FEB54E40E9431038E
S11304000E94A303862F0895CF93DF9300D0CDB726
S1130410DEB780EC898383E08A830E946901CE0180
S113042001960E9441000E94D0028CE00E94430188
S11304300E94EA01182F8E3110F560E080E00E94DE
S1130440E50262E080E00E94AB0183E690E00E9456
S11304509E0162E081E00E94AB018EE690E00E9482
S11304609E016AE081E00E94AB01612F70E080E0B0
S113047090E00E94BE0180E20E947801D9CF8C33C3
S113048010F569E181E00E94E50262E080E00E94EB
S1130490AB0186E790E00E949E0162E081E00E9449
S11304A0AB018EE690E00E949E016AE081E00E942A
S11304B0AB01612F70E080E090E00E94BE0180E219
S11304C00E947801B5CF8A3510F562E381E00E947D
S11304D0E50262E080E00E94AB0181E890E00E94C6
S11304E09E0162E081E00E94AB018EE690E00E94F2
S11304F09E016AE081E00E94AB01612F70E080E020
S113050090E00E94BE0180E20E94780191CF88377A
S113051010F56BE481E00E94E50262E080E00E9455
S1130520AB0181E890E00E949E0162E081E00E94BC
S1130530AB018EE690E00E949E016AE081E00E9499
S1130540AB01612F70E080E090E00E94BE0180E288
S11305500E9478016DCF883708F46ACF64E681E0A1
S11305600E94E50262E080E00E94AB0181E890E035
S11305700E949E0162E081E00E94AB018EE690E061
S11305800E949E016AE081E00E94AB01612F70E04D
S113059080E090E00E94BE0180E20E94780148CF92
S11305A041E061E081E00E945F0041E062E081E0BF
S11305B00E945F0040E061E081E00E94D60040E0DC
S11305C062E081E00E94D6000895CF93C62F811186
S11305D00BC040E061E081E00E94D60040E062E0B0
S11305E081E00E94D6001EC0813069F441E061E0E0
S11305F00E94D60040E062E081E00E94D6008C2F89
S11306000E9414030FC0823069F440E061E081E08D
S11306100E94D60041E062E081E00E94D6008C2F67
S11306200E941403CF91089597B3986097BB12BEAC
S1130630682F70E080E090E00E94D40320E030E076
S113064048EC52E40E94310320E030E04FE753E4E9
S11306500E9460040E94A3036CBF83B78A6683BFB1
S113066008950E9445030C9426040E941F0458F028
S11306700E94180440F029F45F3F29F00C940F0401
S113068051110C945A040C9415040E94370468F315
S11306909923B1F3552391F3951B550BBB27AA2737
S11306A062177307840738F09F5F5F4F220F331F71
S11306B0441FAA1FA9F335D00E2E3AF0E0E832D039
S11306C091505040E695001CCAF72BD0FE2F29D03C
S11306D0660F771F881FBB1F261737074807AB070E
S11306E0B0E809F0BB0B802DBF01FF2793585F4F83
S11306F03AF09E3F510578F00C940F040C945A0480
S11307005F3FE4F3983ED4F3869577956795B79564
S1130710F7959F5FC9F7880F911D9695879597F96F
S11307200895E1E0660F771F881FBB1F62177307E8
S11307308407BA0720F0621B730B840BBA0BEE1FFD
S113074088F7E09508950E943F0488F09F5798F039
S1130750B92F9927B751B0F0E1F0660F771F881FC2
S1130760991F1AF0BA95C9F714C0B13091F00E94DC
S11307705904B1E008950C945904672F782F882701
S1130780B85F39F0B93FCCF3869577956795B39503
S1130790D9F73EF490958095709561957F4F8F4F72
S11307A09F4F0895E89409C097FB3EF49095809577
S11307B0709561957F4F8F4F9F4F9923A9F0F92F23
S11307C096E9BB279395F695879577956795B795A1
S11307D0F111F8CFFAF4BB0F11F460FF1BC06F5F87
S11307E07F4F8F4F9F4F16C0882311F096E911C099
S11307F0772321F09EE8872F762F05C0662371F0BA
S113080096E8862F70E060E02AF09A95660F771FCD
S1130810881FDAF7880F9695879597F9089597F9C1
S11308209F6780E870E060E008959FEF80EC089592
S113083000240A94161617061806090608950024BB
S11308400A9412161306140605060895092E039435
S1130850000C11F4882352F0BB0F40F4BF2B11F4A9
S113086060FF04C06F5F7F4F8F4F9F4F089557FD08
S11308709058440F551F59F05F3F71F04795880F0A
S113088097FB991F61F09F3F79F0879508951216A1
S113089013061406551FF2CF4695F1DF08C016164D
S11308A017061806991FF1CF8695710561050894FE
S11308B00895E894BB2766277727CB0197F9089515
S11308C00E9473040C9426040E94180438F00E94B9
S11308D01F0420F0952311F00C940F040C941504BC
S11308E011240C945A040E94370470F3959FC1F3A9
S11308F0950F50E0551F629FF001729FBB27F00DCA
S1130900B11D639FAA27F00DB11DAA1F649F66271E
S1130910B00DA11D661F829F2227B00DA11D621F6D
S1130920739FB00DA11D621F839FA00D611D221F27
S1130930749F3327A00D611D231F849F600D211D0B
S1130940822F762F6A2F11249F5750409AF0F1F08E
S113095088234AF0EE0FFF1FBB1F661F771F881FF7
S113096091505040A9F79E3F510580F00C940F041C
S11309700C945A045F3FE4F3983ED4F3869577953C
S11309806795B795F795E7959F5FC1F7FE2B880F9D
S1130990911D9695879597F90895A29FB001B39FED
S11309A0C001A39F700D811D1124911DB29F700D74
S11309B0811D1124911D0895AEE0B0E0E2EEF4E053
S11309C00C949D070D891E8986E08C831A83098304
S11309D08FEF9FE79E838D83AE01475E5F4F6F89E4
S11309E0788DCE0101960E94FE04EF81F885E00F18
S11309F0F11F10822E96E4E00C94B907ABE0B0E04E
S1130A00E4E0F5E00C948F076C017B018A01FC01A2
S1130A1017821682838181FFCCC1CE0101963C01ED
S1130A20F6019381F70193FD859193FF81917F01F5
S1130A30882309F4BAC1853239F493FD859193FF73
S1130A4081917F01853229F4B60190E00E94F50678
S1130A50E7CF912C212C312CFFE1F315D8F08B3208
S1130A6079F038F4803279F08332A1F4232D2061B7
S1130A701DC08D3261F0803369F4232D216016C0CE
S1130A80832D8260382EE32DE4603E2E2AC0F32DA0
S1130A90F8601DC037FC2DC020ED280F2A3040F02F
S1130AA08E32B9F436FC81C1232D2064322E19C054
S1130AB036FE06C08AE0989E200D1124922E11C0A5
S1130AC0EAE02E9E200D1124222EF32DF0623F2EFB
S1130AD008C08C3621F4832D8068382E02C08836F5
S1130AE041F4F70193FD859193FF81917F01811179
S1130AF0B3CF982F9F7D9554933028F40C5F1F4FEC
S1130B009FE399830DC0833631F0833771F08335C9
S1130B1009F059C021C0F801808189830E5F1F4FFD
S1130B2088248394912C530113C02801F2E04F0EC2
S1130B30511CF801A080B18036FE03C0692D70E01D
S1130B4002C06FEF7FEFC5010E94EA064C018201EB
S1130B50F32DFF773F2E16C0280122E0420E511CD0
S1130B60F801A080B18036FE03C0692D70E002C098
S1130B706FEF7FEFC5010E94DF064C01F32DF06893
S1130B803F2E820133FC1BC0822D90E0881699060B
S1130B90B0F4B60180E290E00E94F5062A94F4CF06
S1130BA0F50137FC859137FE81915F01B60190E034
S1130BB00E94F50621102A9421E0821A91088114DA
S1130BC0910471F7E8C0843611F0893641F5F801D3
S1130BD037FE07C060817181828193810C5F1F4F52
S1130BE008C060817181072E000C880B990B0E5F81
S1130BF01F4FF32DFF763F2E97FF09C090958095E8
S1130C00709561957F4F8F4F9F4FF0683F2E2AE07C
S1130C1030E0A3010E943107882E861845C085372D
S1130C2031F4232D2F7EB22E2AE030E025C0932DFF
S1130C30997FB92E8F36C1F018F4883579F0B5C094
S1130C40803719F0883721F0B0C0E92FE061BE2E5B
S1130C50B4FE0DC0FB2DF460BF2E09C034FE0AC0E3
S1130C60292F2660B22E06C028E030E005C020E11E
S1130C7030E002C020E132E0F801B7FE07C0608135
S1130C807181828193810C5F1F4F06C060817181E5
S1130C9080E090E00E5F1F4FA3010E943107882E71
S1130CA08618FB2DFF773F2E36FE0DC0232D2E7F99
S1130CB0A22E891458F434FE0BC032FC09C0832DD3
S1130CC08E7EA82E05C0B82CA32C03C0B82C01C05E
S1130CD0B92CA4FE0FC0FE01E80DF11D8081803304
S1130CE021F49A2D997EA92E09C0A2FE06C0B394C0
S1130CF0B39404C08A2D867809F0B394A3FC11C080
S1130D00A0FE06C0B21488F4280C922C9B180EC0C6
S1130D10B21460F4B60180E290E00E94F506B39448
S1130D20F7CFB21418F42B1802C0982C212CA4FE6F
S1130D3010C0B60180E390E00E94F506A2FE17C041
S1130D40A1FC03C088E790E002C088E590E0B6010A
S1130D500CC08A2D867859F0A1FE02C08BE201C036
S1130D6080E2A7FC8DE2B60190E00E94F5068914AA
S1130D7038F4B60180E390E00E94F5069A94F7CF28
S1130D808A94F301E80DF11D8081B60190E00E9480
S1130D90F5068110F5CF222009F442CEB60180E297
S1130DA090E00E94F5062A94F6CFF6018681978199
S1130DB002C08FEF9FEF2B96E2E10C94AB07FC018E
S1130DC00590615070400110D8F7809590958E0F72
S1130DD09F1F0895FC016150704001900110D8F7E5
S1130DE0809590958E0F9F1F08950F931F93CF9317
S1130DF0DF93FB01238121FD03C08FEF9FEF2CC004
S1130E0022FF16C04681578124813581421753073A
S1130E1044F4A081B1819D012F5F3F4F3183208332
S1130E208C93268137812F5F3F4F3783268314C0ED
S1130E308B01EC01FB010084F185E02D0995892BE0
S1130E40E1F6D80116968D919C9117970196179605
S1130E509C938E931697CE01DF91CF911F910F91A2
S1130E600895FA01AA27283051F1203181F1E8943C
S1130E706F936E7F6E5F7F4F8F4F9F4FAF4FB1E089
S1130E803ED0B4E03CD0670F781F891F9A1FA11D84
S1130E90680F791F8A1F911DA11D6A0F711D811D85
S1130EA0911DA11D20D009F468943F912AE0269F4A
S1130EB011243019305D3193DEF6CF010895462FA9
S1130EC04770405D4193B3E00FD0C9F7F6CF462F8A
S1130ED04F70405D4A3318F0495D31FD40524193F3
S1130EE002D0A9F7EACFB4E0A695979587957795B0
S1130EF06795BA95C9F700976105710508959B0137
S1130F00AC010A2E06945795479537952795BA95BF
S1130F10C9F7620F731F841F951FA01D08952F9298
S1130F203F924F925F926F927F928F929F92AF9275
S1130F30BF92CF92DF92EF92FF920F931F93CF93C2
S1130F40DF93CDB7DEB7CA1BDB0B0FB6F894DEBF59
S1130F500FBECDBF09942A88398848885F846E847F
S1130F607D848C849B84AA84B984C884DF80EE80C9
S1130F70FD800C811B81AA81B981CE0FD11D0FB6D2
S1130F80F894DEBF0FBECDBFED010895F894FFCFF6
S1130F9025640046616E206973204F4646005465FF
S1130FA06D70203D200046616E206973204F4E20F5
S10F0FB00046616E206973204F4E000063
S9030000FC
