:100000000C942A000C943F000C943F000C943F0089
:100010000C943F000C943F000C943F000C943F0064
:100020000C943F000C943F000C943F000C943F0054
:100030000C943F000C943F000C943F000C943F0044
:100040000C943F000C943F000C943F000C943F0034
:100050000C943F0011241FBECFE5D4E0DEBFCDBF1E
:1000600010E0A0E6B0E0E8ECF1E002C005900D92EF
:10007000A036B107D9F70E949C000C94E2000C94C2
:10008000000092B39F7E92BB92B39F7D92BBE9EF3B
:10009000F0E03197F1F700C0000092B3906492BB9A
:1000A000E9EFF0E03197F1F700C0000085BB89EF80
:1000B00090E00197F1F700C0000082B38F7B82BB14
:1000C000E9EFF0E03197F1F700C0000008958FEFFD
:1000D00084BB81B3806781BB88E30E9441008FE0CD
:1000E0000E94410081E00E944100089592B3906116
:1000F00092BB92B39F7D92BBE9EFF0E03197F1F7AD
:1001000000C0000092B3906492BBE9EFF0E0319739
:10011000F1F700C0000085BB89EF90E00197F1F78F
:1001200000C0000082B38F7B82BBE9EFF0E0319723
:10013000F1F700C000000895CF93DF9300D000D006
:1001400000D0CDB7DEB7CE01019626E0FC011192BA
:100150002A95E9F70E94B3000E9467000E94DE0022
:100160000E947600FBCFFC018081803169F487B367
:10017000806287BB87B3806887BB87B3806187BB9A
:1001800087B38F7B87BB0CC087B38F7E87BB87B35A
:100190008F7D87BB87B3806487BB87B38F7787BB2F
:1001A000518180814381328124819581852B842BEB
:1001B000832B822B892B80648DB90895779BFECF8A
:0801C0008FB10895F894FFCF00
:00000001FF
