S01100004368616C6C656E67652E7372656390
S11300000C942A000C943F000C943F000C943F0085
S11300100C943F000C943F000C943F000C943F0060
S11300200C943F000C943F000C943F000C943F0050
S11300300C943F000C943F000C943F000C943F0040
S11300400C943F000C943F000C943F000C943F0030
S11300500C943F0011241FBECFE5D4E0DEBFCDBF1A
S113006010E0A0E6B0E0E2EEF0E002C005900D92F0
S1130070A836B107D9F70E9441000C946F000C9484
S11300800000CF93DF93CDB7DEB728970FB6F8946F
S1130090DEBF0FBECDBF8FE084BB88E0E0E6F0E0BA
S11300A0DE01119601900D928A95E1F780E001C07E
S11300B080E0E1E0F0E0EC0FFD1FE80FF11D90811E
S11300C09F7095BB2FE936E891E021503040904075
S11300D0E1F700C000008F5F883059F7E9CFF8944A
S10500E0FFCF4C
S10B00E20C04060203010908E5
S9030000FC
