S0120000457865726369736520312E7372656389
S11300000C942A000C9447000C9447000C9447006D
S11300100C9447000C9474010C9447000C94470012
S11300200C9447000C9447000C9447000C94470030
S11300300C9447000C9447000C9447000C94470020
S11300400C9447000C9447000C9447000C94470010
S11300500C94470011241FBECFE5D4E0DEBFCDBF12
S113006010E0A0E6B0E0EEEAFCE002C005900D92DC
S1130070A836B107D9F720E0A8E6B0E001C01D9288
S1130080A137B207E1F70E941C010C9455060C94A9
S1130090000092B39F7E92BB92B39F7D92BBE9EF27
S11300A0F0E03197F1F700C0000092B3906892BB82
S11300B0E9EFF0E03197F1F700C0000085BB89EF6C
S11300C090E00197F1F700C0000082B38F7782BB04
S11300D0E9EFF0E03197F1F700C0000008958FEFE9
S11300E084BB81B3806B81BB88E30E9449008FE0AD
S11300F00E94490081E00E944900089592B39061F2
S113010092BB92B39F7D92BBE9EFF0E03197F1F798
S113011000C0000092B3906892BBE9EFF0E0319721
S1130120F1F700C0000085BB89EF90E00197F1F77B
S113013000C0000082B38F7782BBE9EFF0E0319713
S1130140F1F700C000000895CF93DF93EC0103C0E2
S11301500E947E00219688818111FACFDF91CF9190
S11301600895882329F0813011F060E001C0605CBB
S1130170862F80680E94490008950F931F93CF93A0
S1130180DF9300D000D0CDB7DEB719821A821B826C
S11301901C829F938F937F936F9380E690E09F934D
S11301A08F938E010F5F1F4F1F930F930E946B035A
S11301B0C8010E94A4000FB6F894DEBF0FBECDBFE5
S11301C00F900F900F900F90DF91CF911F910F918F
S11301D0089580916C008F5F80936C00813031F4BE
S11301E00E94CC0180E00E94C0010895823051F445
S11301F00E94C90190936B0080936A0081E00E9481
S1130200C0010895833051F40E94C9019093700095
S113021080936F0080E00E94C0010895843059F4F7
S11302200E94C90190936E0080936D000E94CC01DE
S113023081E00E94C0010895CF93DF9300D0CDB731
S1130240DEB78FB780688FBF0E946F0081E089831B
S11302508A8389EE90E00E94BB01CE0101960E9440
S11302609D0183E690E00E94A40080916C0084309C
S1130270E1F700916D0010916E0080916F009091F4
S11302807000B801681B790B80E090E00E94700256
S11302906B017C0180916A0090916B00B801681B2E
S11302A0790B80E090E00E9470029B01AC01C701D1
S11302B0B6010E94CF0120E030E048EC52E40E94F5
S11302C0FE020E9441026B017C0166E080E00E9414
S11302D0B100B60180E090E00E94BD0085E20E947A
S11302E07E0010926C00C1CF1F920F920FB60F9236
S11302F011242F933F934F935F936F937F938F9327
S11303009F93AF93BF93EF93FF93E0916800F091B5
S11303106900309709F00995FF91EF91BF91AF9172
S11303209F918F917F916F915F914F913F912F9109
S11303300F900FBE0F901F901895FC0191B39F7BF7
S113034091BB9FB59C609FBD4EB5918180E4989F01
S113035090011124942F9F7B292B2EBD99B7906275
S113036099BF1DBC1CBC17BC16BC8EB59081887F80
S1130370892B8EBD08959093690080936800089539
S11303802EB530E4839FC00111242F7B822B8EBDB8
S1130390089586B597B508951DBC1CBC08950E94A8
S11303A0E3010C94C4020E94BD0258F00E94B602FC
S11303B040F029F45F3F29F00C94AD0251110C94E4
S11303C0F8020C94B3020E94D50268F39923B1F3A6
S11303D0552391F3951B550BBB27AA276217730767
S11303E0840738F09F5F5F4F220F331F441FAA1FFB
S11303F0A9F335D00E2E3AF0E0E832D091505040B7
S1130400E695001CCAF72BD0FE2F29D0660F771F64
S1130410881FBB1F261737074807AB07B0E809F04A
S1130420BB0B802DBF01FF2793585F4F3AF09E3FCF
S1130430510578F00C94AD020C94F8025F3FE4F39C
S1130440983ED4F3869577956795B795F7959F5F12
S1130450C9F7880F911D9695879597F90895E1E05E
S1130460660F771F881FBB1F621773078407BA07BD
S113047020F0621B730B840BBA0BEE1F88F7E09518
S113048008950E94DD0288F09F5798F0B92F9927AC
S1130490B751B0F0E1F0660F771F881F991F1AF06B
S11304A0BA95C9F714C0B13091F00E94F702B1E0D7
S11304B008950C94F702672F782F8827B85F39F0D6
S11304C0B93FCCF3869577956795B395D9F73EF404
S11304D090958095709561957F4F8F4F9F4F0895AC
S11304E0E89409C097FB3EF49095809570956195CA
S11304F07F4F8F4F9F4F9923A9F0F92F96E9BB2780
S11305009395F695879577956795B795F111F8CFFB
S1130510FAF4BB0F11F460FF1BC06F5F7F4F8F4F66
S11305209F4F16C0882311F096E911C0772321F05C
S11305309EE8872F762F05C0662371F096E8862FF4
S113054070E060E02AF09A95660F771F881FDAF74B
S1130550880F9695879597F9089597F99F6780E88E
S113056070E060E008959FEF80EC089500240A9401
S11305701616170618060906089500240A9412167A
S11305801306140605060895092E0394000C11F4AD
S1130590882352F0BB0F40F4BF2B11F460FF04C05A
S11305A06F5F7F4F8F4F9F4F089557FD9058440FB3
S11305B0551F59F05F3F71F04795880F97FB991FBE
S11305C061F09F3F79F0879508951216130614067B
S11305D0551FF2CF4695F1DF08C016161706180608
S11305E0991FF1CF86957105610508940895E894E3
S11305F0BB2766277727CB0197F908950E9411033B
S11306000C94C4020E94B60238F00E94BD0220F08D
S1130610952311F00C94AD020C94B30211240C94A4
S1130620F8020E94D50270F3959FC1F3950F50E034
S1130630551F629FF001729FBB27F00DB11D639F90
S1130640AA27F00DB11DAA1F649F6627B00DA11D36
S1130650661F829F2227B00DA11D621F739FB00DDC
S1130660A11D621F839FA00D611D221F749F33274C
S1130670A00D611D231F849F600D211D822F762FE5
S11306806A2F11249F5750409AF0F1F088234AF0C2
S1130690EE0FFF1FBB1F661F771F881F915050402E
S11306A0A9F79E3F510580F00C94AD020C94F8021A
S11306B05F3FE4F3983ED4F3869577956795B795B5
S11306C0F795E7959F5FC1F7FE2B880F911D9695CF
S11306D0879597F90895AEE0B0E0E1E7F3E00C9474
S11306E02C060D891E8986E08C831A8309838FEF7B
S11306F09FE79E838D83AE01475E5F4F6F89788D40
S1130700CE0101960E948D03EF81F885E00FF11F61
S113071010822E96E4E00C944806ABE0B0E0E3E9E6
S1130720F3E00C941E066C017B018A01FC01178224
S11307301682838181FFCCC1CE0101963C01F60172
S11307409381F70193FD859193FF81917F01882324
S113075009F4BAC1853239F493FD859193FF8191EF
S11307607F01853229F4B60190E00E948405E7CF29
S1130770912C212C312CFFE1F315D8F08B3279F038
S113078038F4803279F08332A1F4232D20611DC026
S11307908D3261F0803369F4232D216016C0832DDE
S11307A08260382EE32DE4603E2E2AC0F32DF860DB
S11307B01DC037FC2DC020ED280F2A3040F08E32AA
S11307C0B9F436FC81C1232D2064322E19C036FEC3
S11307D006C08AE0989E200D1124922E11C0EAE0F2
S11307E02E9E200D1124222EF32DF0623F2E08C0E0
S11307F08C3621F4832D8068382E02C0883641F46B
S1130800F70193FD859193FF81917F018111B3CF0E
S1130810982F9F7D9554933028F40C5F1F4F9FE3CE
S113082099830DC0833631F0833771F0833509F035
S113083059C021C0F801808189830E5F1F4F88242D
S11308408394912C530113C02801F2E04F0E511CE4
S1130850F801A080B18036FE03C0692D70E002C0AB
S11308606FEF7FEFC5010E9479054C018201F32DE2
S1130870FF773F2E16C0280122E0420E511CF801DA
S1130880A080B18036FE03C0692D70E002C06FEF16
S11308907FEFC5010E946E054C01F32DF0683F2ED9
S11308A0820133FC1BC0822D90E088169906B0F4B7
S11308B0B60180E290E00E9484052A94F4CFF50109
S11308C037FC859137FE81915F01B60190E00E946B
S11308D0840521102A9421E0821A9108811491043C
S11308E071F7E8C0843611F0893641F5F80137FE16
S11308F007C060817181828193810C5F1F4F08C0A2
S113090060817181072E000C880B990B0E5F1F4FBD
S1130910F32DFF763F2E97FF09C090958095709533
S113092061957F4F8F4F9F4FF0683F2E2AE030E054
S1130930A3010E94C005882E861845C0853731F46E
S1130940232D2F7EB22E2AE030E025C0932D997FEF
S1130950B92E8F36C1F018F4883579F0B5C08037D8
S113096019F0883721F0B0C0E92FE061BE2EB4FE43
S11309700DC0FB2DF460BF2E09C034FE0AC0292F20
S11309802660B22E06C028E030E005C020E130E049
S113099002C020E132E0F801B7FE07C06081718136
S11309A0828193810C5F1F4F06C06081718180E05A
S11309B090E00E5F1F4FA3010E94C005882E861889
S11309C0FB2DFF773F2E36FE0DC0232D2E7FA22E4A
S11309D0891458F434FE0BC032FC09C0832D8E7E7A
S11309E0A82E05C0B82CA32C03C0B82C01C0B92C68
S11309F0A4FE0FC0FE01E80DF11D8081803321F4B7
S1130A009A2D997EA92E09C0A2FE06C0B394B39470
S1130A1004C08A2D867809F0B394A3FC11C0A0FE0B
S1130A2006C0B21488F4280C922C9B180EC0B21481
S1130A3060F4B60180E290E00E948405B394F7CF9D
S1130A40B21418F42B1802C0982C212CA4FE10C048
S1130A50B60180E390E00E948405A2FE17C0A1FCC9
S1130A6003C088E790E002C088E590E0B6010CC0BE
S1130A708A2D867859F0A1FE02C08BE201C080E283
S1130A80A7FC8DE2B60190E00E948405891438F435
S1130A90B60180E390E00E9484059A94F7CF8A948B
S1130AA0F301E80DF11D8081B60190E00E948405F8
S1130AB08110F5CF222009F442CEB60180E290E005
S1130AC00E9484052A94F6CFF6018681978102C09C
S1130AD08FEF9FEF2B96E2E10C943A06FC01059010
S1130AE0615070400110D8F7809590958E0F9F1F2C
S1130AF00895FC016150704001900110D8F7809571
S1130B0090958E0F9F1F08950F931F93CF93DF939C
S1130B10FB01238121FD03C08FEF9FEF2CC022FF37
S1130B2016C046815781248135814217530744F406
S1130B30A081B1819D012F5F3F4F318320838C932E
S1130B40268137812F5F3F4F3783268314C08B0163
S1130B50EC01FB010084F185E02D0995892BE1F678
S1130B60D80116968D919C911797019617969C9390
S1130B708E931697CE01DF91CF911F910F91089517
S1130B80FA01AA27283051F1203181F1E8946F93BA
S1130B906E7F6E5F7F4F8F4F9F4FAF4FB1E03ED060
S1130BA0B4E03CD0670F781F891F9A1FA11D680FFE
S1130BB0791F8A1F911DA11D6A0F711D811D911D31
S1130BC0A11D20D009F468943F912AE0269F1124A6
S1130BD03019305D3193DEF6CF010895462F47700A
S1130BE0405D4193B3E00FD0C9F7F6CF462F4F7065
S1130BF0405D4A3318F0495D31FD4052419302D0C3
S1130C00A9F7EACFB4E0A695979587957795679568
S1130C10BA95C9F700976105710508959B01AC0168
S1130C200A2E06945795479537952795BA95C9F78F
S1130C30620F731F841F951FA01D08952F923F926A
S1130C404F925F926F927F928F929F92AF92BF92D8
S1130C50CF92DF92EF92FF920F931F93CF93DF9384
S1130C60CDB7DEB7CA1BDB0B0FB6F894DEBF0FBEE1
S1130C70CDBF09942A88398848885F846E847D842E
S1130C808C849B84AA84B984C884DF80EE80FD8030
S1130C900C811B81AA81B981CE0FD11D0FB6F894A6
S1110CA0DEBF0FBECDBFED010895F894FFCF67
S10B0CAE25640044757479000B
S9030000FC
