S00B00004D43312E7372656358
S11300000C942A000C943F000C943F000C943F0085
S11300100C943F000C943F000C943F000C943F0060
S11300200C943F000C943F000C943F000C943F0050
S11300300C943F000C943F000C943F000C943F0040
S11300400C943F000C943F000C943F000C943F0030
S11300500C943F0011241FBECFE5D4E0DEBFCDBF1A
S113006010E0A0E6B0E0E4E5F1E002C005900D92F6
S1130070A636B107D9F70E9441000C94A8000C944D
S11300800000CF93DF9300D000D000D0CDB7DEB70F
S113009087B3816087BB80E189831A821B821C82BB
S11300A01D821E82CE0101960E9464002FE382E429
S11300B09FE0215080409040E1F700C0000080E6BE
S11300C090E00E949300FFCFFC018081803169F4AD
S11300D087B3806287BB87B3806887BB87B380613F
S11300E087BB87B38F7B87BB0CC087B38F7E87BBEF
S11300F087B38F7D87BB87B3806487BB87B38F77D4
S113010087BB518180814381328124819581852BF4
S1130110842B832B822B892B80648DB908958FB90E
S1130120779BFECF08950F931F93CF938C01C0E06C
S113013003C00E948F00CF5FF801EC0FF11D808196
S11301408111F7CF0E948F00CF911F910F910895D5
S1070150F894FFCF4D
S10901544B696C6C000015
S9030000FC
