S0120000457865726369736520312E7372656389
S11300000C942A000C9434000C9434000C943400A6
S11300100C9434000C9434000C9434000C9434008C
S11300200C9434000C9434000C9434000C9434007C
S11300300C9434000C9434000C9434000C9434006C
S11300400C9434000C9434000C9434000C9434005C
S11300500C94340011241FBECFE5D4E0DEBFCDBF25
S11300600E9442000C9456000C94000012BE83B708
S1130070856083BF08B600FEFDCF13BE88B78160DC
S113008088BF089584B3816084BB85B38E7F85BBAC
S113009095B381E0892785BBC0E0D0E003C00E940E
S11300A036002196C230D105D4F3F2CFF894FFCFB5
S9030000FC
